{
  "address": "0xbbFfF35F9203707c80b46C3B8F8aCEAa7d12C67A",
  "abi": [
    {
      "anonymous": false,
      "inputs": [
        {
          "indexed": true,
          "internalType": "address",
          "name": "token0",
          "type": "address"
        },
        {
          "indexed": true,
          "internalType": "address",
          "name": "token1",
          "type": "address"
        },
        {
          "indexed": false,
          "internalType": "address",
          "name": "pair",
          "type": "address"
        },
        {
          "indexed": false,
          "internalType": "uint256",
          "name": "pairCount",
          "type": "uint256"
        }
      ],
      "name": "PairCreated",
      "type": "event"
    },
    {
      "inputs": [
        {
          "internalType": "uint256",
          "name": "",
          "type": "uint256"
        }
      ],
      "name": "allPairs",
      "outputs": [
        {
          "internalType": "address",
          "name": "",
          "type": "address"
        }
      ],
      "stateMutability": "view",
      "type": "function"
    },
    {
      "inputs": [],
      "name": "allPairsLength",
      "outputs": [
        {
          "internalType": "uint256",
          "name": "",
          "type": "uint256"
        }
      ],
      "stateMutability": "view",
      "type": "function"
    },
    {
      "inputs": [
        {
          "internalType": "address",
          "name": "tokenA",
          "type": "address"
        },
        {
          "internalType": "address",
          "name": "tokenB",
          "type": "address"
        }
      ],
      "name": "createPair",
      "outputs": [
        {
          "internalType": "address",
          "name": "pair",
          "type": "address"
        }
      ],
      "stateMutability": "nonpayable",
      "type": "function"
    },
    {
      "inputs": [
        {
          "internalType": "address",
          "name": "",
          "type": "address"
        },
        {
          "internalType": "address",
          "name": "",
          "type": "address"
        }
      ],
      "name": "getPair",
      "outputs": [
        {
          "internalType": "address",
          "name": "",
          "type": "address"
        }
      ],
      "stateMutability": "view",
      "type": "function"
    }
  ],
  "transactionHash": "0x4987411e23e81991f4e14355f7395f88199562ef9e3ceb3f5ee11c21405297e8",
  "args": [],
  "numDeployments": 1,
  "solcInputHash": "e6874775def4ea22c2b8f71dc892b17e",
  "bytecode": "0x608060405234801561001057600080fd5b50612ccc806100206000396000f3fe608060405234801561001057600080fd5b506004361061004c5760003560e01c80631e3dd18b14610051578063574f2ba314610081578063c9c6539614610092578063e6a43905146100a5575b600080fd5b61006461005f366004610385565b6100d6565b6040516001600160a01b0390911681526020015b60405180910390f35b600154604051908152602001610078565b6100646100a03660046103ba565b610100565b6100646100b33660046103ba565b60006020818152928152604080822090935290815220546001600160a01b031681565b600181815481106100e657600080fd5b6000918252602090912001546001600160a01b0316905081565b6000816001600160a01b0316836001600160a01b0316036101685760405162461bcd60e51b815260206004820152601f60248201527f444558466163746f72793a204944454e544943414c5f4144445245535345530060448201526064015b60405180910390fd5b600080836001600160a01b0316856001600160a01b03161061018b57838561018e565b84845b90925090506001600160a01b0382166101e95760405162461bcd60e51b815260206004820152601860248201527f444558466163746f72793a205a45524f5f414444524553530000000000000000604482015260640161015f565b6001600160a01b038281166000908152602081815260408083208585168452909152902054161561025c5760405162461bcd60e51b815260206004820152601760248201527f444558466163746f72793a20504149525f455849535453000000000000000000604482015260640161015f565b6000828260405161026c90610378565b6001600160a01b03928316815291166020820152604001604051809103906000f08015801561029f573d6000803e3d6000fd5b506001600160a01b0384811660008181526020818152604080832088861680855290835281842080546001600160a01b031990811697891697881790915584845282852086865284528285208054821688179055600180548082018255958190527fb10e2d527612073b26eecdfd717e6a320cf44b4afac2b0732d9fcbe2b7fa0cf690950180549091168717905592548151958652918501919091529397508794509290917f0d3648bd0f6ba80134a33ba9275ac585d9d315f0ad8355cddefde31afa28d0e9910160405180910390a350505092915050565b6128a9806103ee83390190565b60006020828403121561039757600080fd5b5035919050565b80356001600160a01b03811681146103b557600080fd5b919050565b600080604083850312156103cd57600080fd5b6103d68361039e565b91506103e46020840161039e565b9050925092905056fe60c06040523480156200001157600080fd5b50604051620028a9380380620028a98339810160408190526200003491620001af565b6040518060400160405280600c81526020016b053696d706c65444558204c560a41b815250604051806040016040528060068152602001650534c502d4c560d41b81525081600390816200008991906200028c565b5060046200009882826200028c565b50506001600555506001600160a01b03821615801590620000c157506001600160a01b03811615155b620001135760405162461bcd60e51b815260206004820152601560248201527f496e76616c696420746f6b656e2061646472657373000000000000000000000060448201526064015b60405180910390fd5b806001600160a01b0316826001600160a01b031603620001765760405162461bcd60e51b815260206004820152601860248201527f546f6b656e73206d75737420626520646966666572656e74000000000000000060448201526064016200010a565b6001600160a01b039182166080521660a05242600b5562000358565b80516001600160a01b0381168114620001aa57600080fd5b919050565b60008060408385031215620001c357600080fd5b620001ce8362000192565b9150620001de6020840162000192565b90509250929050565b634e487b7160e01b600052604160045260246000fd5b600181811c908216806200021257607f821691505b6020821081036200023357634e487b7160e01b600052602260045260246000fd5b50919050565b601f8211156200028757600081815260208120601f850160051c81016020861015620002625750805b601f850160051c820191505b8181101562000283578281556001016200026e565b5050505b505050565b81516001600160401b03811115620002a857620002a8620001e7565b620002c081620002b98454620001fd565b8462000239565b602080601f831160018114620002f85760008415620002df5750858301515b600019600386901b1c1916600185901b17855562000283565b600085815260208120601f198616915b82811015620003295788860151825594840194600190910190840162000308565b5085821015620003485787850151600019600388901b60f8161c191681555b5050505050600190811b01905550565b60805160a0516124b4620003f56000396000818161030e0152818161057f015281816109ab01528181610b9c01528181610dcc01528181610e8701528181610eef01526114ca01526000818161024801528181610544015281816105f3015281816107220152818161091901528181610b0401528181610d9101528181610e4801528181610ea801528181610ece015261143101526124b46000f3fe608060405234801561001057600080fd5b50600436106101da5760003560e01c806370a0823111610104578063a457c2d7116100a2578063dbbdd93511610071578063dbbdd9351461040b578063dc5fa6c51461041e578063dd62ed3e14610427578063f30d3d1b1461043a57600080fd5b8063a457c2d7146103d4578063a9059cbb146103e7578063d294f093146103fa578063d73792a91461040257600080fd5b806395d89b41116100de57806395d89b411461037e5780639c8f9f23146103865780639cd441da146103ae5780639f1d0f59146103c157600080fd5b806370a08231146103395780637105c19f14610362578063923e1e9d1461036b57600080fd5b806323b872dd1161017c57806341cd47bf1161014b57806341cd47bf146102f8578063455d48f5146103005780635f64b55b146103095780636949faeb1461033057600080fd5b806323b872dd146102b0578063252c09d7146102c3578063313ce567146102d657806339509351146102e557600080fd5b80630fc63d10116101b85780630fc63d101461024357806318160ddd1461028257806319e36f3b146102945780631befa6db1461029d57600080fd5b806306fdde03146101df5780630902f1ac146101fd578063095ea7b314610220575b600080fd5b6101e761044d565b6040516101f49190612182565b60405180910390f35b6102056104df565b604080519384526020840192909252908201526060016101f4565b61023361022e3660046121ec565b6104fe565b60405190151581526020016101f4565b61026a7f000000000000000000000000000000000000000000000000000000000000000081565b6040516001600160a01b0390911681526020016101f4565b6002545b6040519081526020016101f4565b61028660075481565b6102866102ab3660046121ec565b610518565b6102336102be366004612216565b6106a2565b6102056102d1366004612252565b6106c8565b604051601281526020016101f4565b6102336102f33660046121ec565b6106fb565b610286600381565b61028660085481565b61026a7f000000000000000000000000000000000000000000000000000000000000000081565b610286600b5481565b61028661034736600461226b565b6001600160a01b031660009081526020819052604090205490565b61028660095481565b610286610379366004612286565b61071d565b6101e761078a565b610399610394366004612252565b610799565b604080519283526020830191909152016101f4565b6102866103bc3660046122b2565b610a74565b6102866103cf3660046122d4565b610d65565b6102336103e23660046121ec565b611274565b6102336103f53660046121ec565b6112fa565b610399611308565b6102866103e881565b61039961041936600461226b565b61158d565b61028660065481565b610286610435366004612307565b6115da565b610399610448366004612252565b611605565b60606003805461045c90612331565b80601f016020809104026020016040519081016040528092919081815260200182805461048890612331565b80156104d55780601f106104aa576101008083540402835291602001916104d5565b820191906000526020600020905b8154815290600101906020018083116104b857829003601f168201915b5050505050905090565b60008060006006546007546104f360025490565b925092509250909192565b60003361050c818585611861565b60019150505b92915050565b60008082116105425760405162461bcd60e51b81526004016105399061236b565b60405180910390fd5b7f00000000000000000000000000000000000000000000000000000000000000006001600160a01b0316836001600160a01b031614806105b357507f00000000000000000000000000000000000000000000000000000000000000006001600160a01b0316836001600160a01b0316145b6105ef5760405162461bcd60e51b815260206004820152600d60248201526c24b73b30b634b2103a37b5b2b760991b6044820152606401610539565b60007f00000000000000000000000000000000000000000000000000000000000000006001600160a01b0316846001600160a01b03161490506000808261063b57600754600654610642565b6006546007545b9092509050600061065660036103e86123b8565b61066090876123cb565b9050600061066e83836123cb565b905060008261067f6103e8876123cb565b61068991906123e2565b905061069581836123f5565b9998505050505050505050565b6000336106b0858285611986565b6106bb858585611a00565b60019150505b9392505050565b600a81815481106106d857600080fd5b600091825260209091206003909102018054600182015460029092015490925083565b60003361050c81858561070e83836115da565b61071891906123e2565b611861565b6000807f00000000000000000000000000000000000000000000000000000000000000006001600160a01b0316836001600160a01b03161490506000808261076a57600754600654610771565b6006546007545b91509150610780868383611ba4565b9695505050505050565b60606004805461045c90612331565b6000806107a4611c57565b600083116107c45760405162461bcd60e51b81526004016105399061236b565b3360009081526020819052604090205483111561081c5760405162461bcd60e51b8152602060048201526016602482015275496e73756666696369656e74206c697175696469747960501b6044820152606401610539565b610824611cb0565b600061082f60025490565b9050806006548561084091906123cb565b61084a91906123f5565b9250806007548561085b91906123cb565b61086591906123f5565b91506000831180156108775750600082115b6108c35760405162461bcd60e51b815260206004820152601d60248201527f496e73756666696369656e74206c6971756964697479206275726e65640000006044820152606401610539565b6108cd3385611dea565b82600660008282546108df91906123b8565b9250508190555081600760008282546108f891906123b8565b909155505060405163a9059cbb60e01b8152336004820152602481018490527f00000000000000000000000000000000000000000000000000000000000000006001600160a01b03169063a9059cbb906044016020604051808303816000875af115801561096a573d6000803e3d6000fd5b505050506040513d601f19601f8201168201806040525081019061098e9190612417565b5060405163a9059cbb60e01b8152336004820152602481018390527f00000000000000000000000000000000000000000000000000000000000000006001600160a01b03169063a9059cbb906044016020604051808303816000875af11580156109fc573d6000803e3d6000fd5b505050506040513d601f19601f82011682018060405250810190610a209190612417565b50604080518481526020810184905290810185905233907f1dc8bb69df2b8e91fbdcbfcf93d951b3f0000f085a95fe3f7946d6161439245d9060600160405180910390a250610a6f6001600555565b915091565b6000610a7e611c57565b600083118015610a8e5750600082115b610ada5760405162461bcd60e51b815260206004820152601e60248201527f416d6f756e7473206d7573742062652067726561746572207468616e203000006044820152606401610539565b610ae2611cb0565b6040516323b872dd60e01b8152336004820152306024820152604481018490527f00000000000000000000000000000000000000000000000000000000000000006001600160a01b0316906323b872dd906064016020604051808303816000875af1158015610b55573d6000803e3d6000fd5b505050506040513d601f19601f82011682018060405250810190610b799190612417565b506040516323b872dd60e01b8152336004820152306024820152604481018390527f00000000000000000000000000000000000000000000000000000000000000006001600160a01b0316906323b872dd906064016020604051808303816000875af1158015610bed573d6000803e3d6000fd5b505050506040513d601f19601f82011682018060405250810190610c119190612417565b506000610c1d60025490565b905080600003610c4057610c39610c3484866123cb565b611f19565b9150610c8d565b600654600090610c5083876123cb565b610c5a91906123f5565b905060006007548386610c6d91906123cb565b610c7791906123f5565b9050808210610c865780610c88565b815b935050505b60008211610cdd5760405162461bcd60e51b815260206004820152601d60248201527f496e73756666696369656e74206c6971756964697479206d696e7465640000006044820152606401610539565b610ce73383611f7a565b8360066000828254610cf991906123e2565b925050819055508260076000828254610d1291906123e2565b9091555050604080518581526020810185905290810183905233907f64b83944e79c3ce8d4c297411de637c3e102d064677aac0c163976ebdcd6f50e9060600160405180910390a2506105126001600555565b6000610d6f611c57565b60008311610d8f5760405162461bcd60e51b81526004016105399061236b565b7f00000000000000000000000000000000000000000000000000000000000000006001600160a01b0316846001600160a01b03161480610e0057507f00000000000000000000000000000000000000000000000000000000000000006001600160a01b0316846001600160a01b0316145b610e3c5760405162461bcd60e51b815260206004820152600d60248201526c24b73b30b634b2103a37b5b2b760991b6044820152606401610539565b610e44611cb0565b60007f00000000000000000000000000000000000000000000000000000000000000006001600160a01b0316856001600160a01b031614905060008082610ecc577f00000000000000000000000000000000000000000000000000000000000000007f0000000000000000000000000000000000000000000000000000000000000000610f0f565b7f00000000000000000000000000000000000000000000000000000000000000007f00000000000000000000000000000000000000000000000000000000000000005b9150915060008084610f2657600754600654610f2d565b6006546007545b915091506000610f3e898484611ba4565b6040516323b872dd60e01b8152336004820152306024820152604481018b90529091506001600160a01b038616906323b872dd906064016020604051808303816000875af1158015610f94573d6000803e3d6000fd5b505050506040513d601f19601f82011682018060405250810190610fb89190612417565b506000610fc860036103e86123b8565b610fd2908b6123cb565b90506000610fe084836123cb565b9050600082610ff16103e8886123cb565b610ffb91906123e2565b905061100781836123f5565b995060008a116110595760405162461bcd60e51b815260206004820152601a60248201527f496e73756666696369656e74206f757470757420616d6f756e740000000000006044820152606401610539565b8a8a101561109d5760405162461bcd60e51b815260206004820152601160248201527014db1a5c1c1859d948195e18d959591959607a1b6044820152606401610539565b848a106110e55760405162461bcd60e51b8152602060048201526016602482015275496e73756666696369656e74206c697175696469747960501b6044820152606401610539565b60006103e86110f560038f6123cb565b6110ff91906123f5565b9050891561115657806008600082825461111991906123e2565b925050819055508c6006600082825461113291906123e2565b925050819055508a6007600082825461114b91906123b8565b909155506111a09050565b806009600082825461116891906123e2565b925050819055508c6007600082825461118191906123e2565b925050819055508a6006600082825461119a91906123b8565b90915550505b60405163a9059cbb60e01b8152336004820152602481018c90526001600160a01b0389169063a9059cbb906044016020604051808303816000875af11580156111ed573d6000803e3d6000fd5b505050506040513d601f19601f820116820180604052508101906112119190612417565b50604080518e8152602081018d90529081018690526001600160a01b038f169033907f9734819749a91fc3be03ea83205f924ee08479bd3f0da48efc91d94d050cac1e9060600160405180910390a3505050505050505050506106c16001600555565b6000338161128282866115da565b9050838110156112e25760405162461bcd60e51b815260206004820152602560248201527f45524332303a2064656372656173656420616c6c6f77616e63652062656c6f77604482015264207a65726f60d81b6064820152608401610539565b6112ef8286868403611861565b506001949350505050565b60003361050c818585611a00565b600080611313611c57565b336000908152602081905260409020548061135f5760405162461bcd60e51b815260206004820152600c60248201526b4e6f206c697175696469747960a01b6044820152606401610539565b600061136a60025490565b905060008161137b846127106123cb565b61138591906123f5565b90506127108160085461139891906123cb565b6113a291906123f5565b9450612710816009546113b591906123cb565b6113bf91906123f5565b935060008511806113d05750600084115b61140f5760405162461bcd60e51b815260206004820152601060248201526f4e6f206665657320746f20636c61696d60801b6044820152606401610539565b84156114a85760405163a9059cbb60e01b8152336004820152602481018690527f00000000000000000000000000000000000000000000000000000000000000006001600160a01b03169063a9059cbb906044016020604051808303816000875af1158015611482573d6000803e3d6000fd5b505050506040513d601f19601f820116820180604052508101906114a69190612417565b505b83156115415760405163a9059cbb60e01b8152336004820152602481018590527f00000000000000000000000000000000000000000000000000000000000000006001600160a01b03169063a9059cbb906044016020604051808303816000875af115801561151b573d6000803e3d6000fd5b505050506040513d601f19601f8201168201806040525081019061153f9190612417565b505b604080518681526020810186905233917f1ac537f0ad67b64ac68a04587ff3a4cb6977de22eb2c37ee560897a92c6d07c7910160405180910390a25050506115896001600555565b9091565b6001600160a01b038116600090815260208190526040812054600254909190600081116115bb5760006115d2565b806115c8846127106123cb565b6115d291906123f5565b915050915091565b6001600160a01b03918216600090815260016020908152604080832093909416825291909152205490565b6000806002600a80549050101561165e5760405162461bcd60e51b815260206004820152601960248201527f496e73756666696369656e74206f62736572766174696f6e73000000000000006044820152606401610539565b620151808311156116a35760405162461bcd60e51b815260206004820152600f60248201526e506572696f6420746f6f206c6f6e6760881b6044820152606401610539565b60006116af84426123b8565b600a549091506000906116c4906001906123b8565b905060005b600a548110156117185782600a82815481106116e7576116e7612439565b9060005260206000209060030201600001541061170657809150611718565b806117108161244f565b9150506116c9565b506000600a828154811061172e5761172e612439565b9060005260206000209060030201604051806060016040529081600082015481526020016001820154815260200160028201548152505090506000600a6001600a8054905061177d91906123b8565b8154811061178d5761178d612439565b600091825260208083206040805160608101825260039094029091018054808552600182015493850193909352600201549083015284519193506117d191906123b8565b9050600081116118155760405162461bcd60e51b815260206004820152600f60248201526e139bc81d1a5b5948195b185c1cd959608a1b6044820152606401610539565b808360200151836020015161182a91906123b8565b61183491906123f5565b9650808360400151836040015161184b91906123b8565b61185591906123f5565b95505050505050915091565b6001600160a01b0383166118c35760405162461bcd60e51b8152602060048201526024808201527f45524332303a20617070726f76652066726f6d20746865207a65726f206164646044820152637265737360e01b6064820152608401610539565b6001600160a01b0382166119245760405162461bcd60e51b815260206004820152602260248201527f45524332303a20617070726f766520746f20746865207a65726f206164647265604482015261737360f01b6064820152608401610539565b6001600160a01b0383811660008181526001602090815260408083209487168084529482529182902085905590518481527f8c5be1e5ebec7d5bd14f71427d1e84f3dd0314c0f7b2291e5b200ac8c7c3b92591015b60405180910390a3505050565b600061199284846115da565b905060001981146119fa57818110156119ed5760405162461bcd60e51b815260206004820152601d60248201527f45524332303a20696e73756666696369656e7420616c6c6f77616e63650000006044820152606401610539565b6119fa8484848403611861565b50505050565b6001600160a01b038316611a645760405162461bcd60e51b815260206004820152602560248201527f45524332303a207472616e736665722066726f6d20746865207a65726f206164604482015264647265737360d81b6064820152608401610539565b6001600160a01b038216611ac65760405162461bcd60e51b815260206004820152602360248201527f45524332303a207472616e7366657220746f20746865207a65726f206164647260448201526265737360e81b6064820152608401610539565b6001600160a01b03831660009081526020819052604090205481811015611b3e5760405162461bcd60e51b815260206004820152602660248201527f45524332303a207472616e7366657220616d6f756e7420657863656564732062604482015265616c616e636560d01b6064820152608401610539565b6001600160a01b03848116600081815260208181526040808320878703905593871680835291849020805487019055925185815290927fddf252ad1be2c89b69c2b068fc378daa952ba7f163c4a11628f55a4df523b3ef910160405180910390a36119fa565b600080611bb460036103e86123b8565b611bbe90866123cb565b90506000611bcc84836123cb565b9050600082611bdd6103e8886123cb565b611be791906123e2565b90506000611bf582846123f5565b9050600087611c04888b6123cb565b611c0e91906123f5565b905080600003611c26576000955050505050506106c1565b600081611c3384826123b8565b611c3f906127106123cb565b611c4991906123f5565b9a9950505050505050505050565b600260055403611ca95760405162461bcd60e51b815260206004820152601f60248201527f5265656e7472616e637947756172643a207265656e7472616e742063616c6c006044820152606401610539565b6002600555565b6000600b5442611cc091906123b8565b9050600081118015611cd457506000600654115b8015611ce257506000600754115b15611de7576000600654600754670de0b6b3a7640000611d0291906123cb565b611d0c91906123f5565b90506000600754600654670de0b6b3a7640000611d2991906123cb565b611d3391906123f5565b6040805160608101825242815260208101858152918101838152600a805460018101825560009190915291517fc65a7bb8d6351c1cf70c95a316cc6a92839c986682d98bc35f958f4883f9d2a860039093029283015591517fc65a7bb8d6351c1cf70c95a316cc6a92839c986682d98bc35f958f4883f9d2a982015590517fc65a7bb8d6351c1cf70c95a316cc6a92839c986682d98bc35f958f4883f9d2aa909101559050611de061203a565b505042600b555b50565b6001600160a01b038216611e4a5760405162461bcd60e51b815260206004820152602160248201527f45524332303a206275726e2066726f6d20746865207a65726f206164647265736044820152607360f81b6064820152608401610539565b6001600160a01b03821660009081526020819052604090205481811015611ebe5760405162461bcd60e51b815260206004820152602260248201527f45524332303a206275726e20616d6f756e7420657863656564732062616c616e604482015261636560f01b6064820152608401610539565b6001600160a01b0383166000818152602081815260408083208686039055600280548790039055518581529192917fddf252ad1be2c89b69c2b068fc378daa952ba7f163c4a11628f55a4df523b3ef9101611979565b505050565b600081600003611f2b57506000919050565b60006002611f3a8460016123e2565b611f4491906123f5565b9050825b808210156106c1575080600281611f5f81876123f5565b611f6991906123e2565b611f7391906123f5565b9150611f48565b6001600160a01b038216611fd05760405162461bcd60e51b815260206004820152601f60248201527f45524332303a206d696e7420746f20746865207a65726f2061646472657373006044820152606401610539565b8060026000828254611fe291906123e2565b90915550506001600160a01b038216600081815260208181526040808320805486019055518481527fddf252ad1be2c89b69c2b068fc378daa952ba7f163c4a11628f55a4df523b3ef910160405180910390a35b5050565b600061204962015180426123b8565b905060005b600a5481108015612082575081600a828154811061206e5761206e612439565b906000526020600020906003020160000154105b1561209957806120918161244f565b91505061204e565b80156120365760005b600a546120b09083906123b8565b81101561212e57600a6120c383836123e2565b815481106120d3576120d3612439565b9060005260206000209060030201600a82815481106120f4576120f4612439565b60009182526020909120825460039092020190815560018083015490820155600291820154910155806121268161244f565b9150506120a2565b5060005b81811015611f1457600a80548061214b5761214b612468565b600082815260208120600360001990930192830201818155600181018290556002015590558061217a8161244f565b915050612132565b600060208083528351808285015260005b818110156121af57858101830151858201604001528201612193565b506000604082860101526040601f19601f8301168501019250505092915050565b80356001600160a01b03811681146121e757600080fd5b919050565b600080604083850312156121ff57600080fd5b612208836121d0565b946020939093013593505050565b60008060006060848603121561222b57600080fd5b612234846121d0565b9250612242602085016121d0565b9150604084013590509250925092565b60006020828403121561226457600080fd5b5035919050565b60006020828403121561227d57600080fd5b6106c1826121d0565b6000806040838503121561229957600080fd5b823591506122a9602084016121d0565b90509250929050565b600080604083850312156122c557600080fd5b50508035926020909101359150565b6000806000606084860312156122e957600080fd5b6122f2846121d0565b95602085013595506040909401359392505050565b6000806040838503121561231a57600080fd5b612323836121d0565b91506122a9602084016121d0565b600181811c9082168061234557607f821691505b60208210810361236557634e487b7160e01b600052602260045260246000fd5b50919050565b6020808252601d908201527f416d6f756e74206d7573742062652067726561746572207468616e2030000000604082015260600190565b634e487b7160e01b600052601160045260246000fd5b81810381811115610512576105126123a2565b8082028115828204841417610512576105126123a2565b80820180821115610512576105126123a2565b60008261241257634e487b7160e01b600052601260045260246000fd5b500490565b60006020828403121561242957600080fd5b815180151581146106c157600080fd5b634e487b7160e01b600052603260045260246000fd5b600060018201612461576124616123a2565b5060010190565b634e487b7160e01b600052603160045260246000fdfea2646970667358221220157daa67b324030cfe5f4ccdf0c2715d77440e950691f6bc56500e1b3cd0e29664736f6c63430008110033a2646970667358221220c5b425d0cda10cab986fb493bf2beeefca959f2bb9cef336e83506bc11147b0b64736f6c63430008110033",
  "devdoc": {
    "details": "Inspired by Uniswap V2 Factory pattern",
    "kind": "dev",
    "methods": {
      "allPairsLength()": {
        "returns": {
          "_0": "Total pair count"
        }
      },
      "createPair(address,address)": {
        "params": {
          "tokenA": "Address of first token",
          "tokenB": "Address of second token"
        },
        "returns": {
          "pair": "Address of the created DEX pair"
        }
      }
    },
    "title": "DEXFactory",
    "version": 1
  },
  "userdoc": {
    "kind": "user",
    "methods": {
      "allPairsLength()": {
        "notice": "Get total number of pairs created"
      },
      "createPair(address,address)": {
        "notice": "Create a new DEX pair for two tokens"
      }
    },
    "notice": "Factory contract to create and manage multiple DEX pairs",
    "version": 1
  },
  "storageLayout": {
    "storage": [
      {
        "astId": 899,
        "contract": "contracts/DEXFactory.sol:DEXFactory",
        "label": "getPair",
        "offset": 0,
        "slot": "0",
        "type": "t_mapping(t_address,t_mapping(t_address,t_address))"
      },
      {
        "astId": 902,
        "contract": "contracts/DEXFactory.sol:DEXFactory",
        "label": "allPairs",
        "offset": 0,
        "slot": "1",
        "type": "t_array(t_address)dyn_storage"
      }
    ],
    "types": {
      "t_address": {
        "encoding": "inplace",
        "label": "address",
        "numberOfBytes": "20"
      },
      "t_array(t_address)dyn_storage": {
        "base": "t_address",
        "encoding": "dynamic_array",
        "label": "address[]",
        "numberOfBytes": "32"
      },
      "t_mapping(t_address,t_address)": {
        "encoding": "mapping",
        "key": "t_address",
        "label": "mapping(address => address)",
        "numberOfBytes": "32",
        "value": "t_address"
      },
      "t_mapping(t_address,t_mapping(t_address,t_address))": {
        "encoding": "mapping",
        "key": "t_address",
        "label": "mapping(address => mapping(address => address))",
        "numberOfBytes": "32",
        "value": "t_mapping(t_address,t_address)"
      }
    }
  }
}