{
  "address": "0x7141fF4Fe20D805D1520f8Bb5CFc88d311804Ab8",
  "abi": [
    {
      "inputs": [
        {
          "internalType": "address",
          "name": "_factory",
          "type": "address"
        }
      ],
      "stateMutability": "nonpayable",
      "type": "constructor"
    },
    {
      "inputs": [],
      "name": "factory",
      "outputs": [
        {
          "internalType": "contract DEXFactory",
          "name": "",
          "type": "address"
        }
      ],
      "stateMutability": "view",
      "type": "function"
    },
    {
      "inputs": [
        {
          "internalType": "uint256",
          "name": "amountIn",
          "type": "uint256"
        },
        {
          "internalType": "address[]",
          "name": "path",
          "type": "address[]"
        }
      ],
      "name": "getAmountsOut",
      "outputs": [
        {
          "internalType": "uint256[]",
          "name": "amounts",
          "type": "uint256[]"
        }
      ],
      "stateMutability": "view",
      "type": "function"
    },
    {
      "inputs": [
        {
          "internalType": "uint256",
          "name": "amountIn",
          "type": "uint256"
        },
        {
          "internalType": "uint256",
          "name": "minAmountOut",
          "type": "uint256"
        },
        {
          "internalType": "address[]",
          "name": "path",
          "type": "address[]"
        },
        {
          "internalType": "address",
          "name": "to",
          "type": "address"
        }
      ],
      "name": "swapExactTokensForTokens",
      "outputs": [
        {
          "internalType": "uint256[]",
          "name": "amounts",
          "type": "uint256[]"
        }
      ],
      "stateMutability": "nonpayable",
      "type": "function"
    }
  ],
  "transactionHash": "0xa82a00d145842d12a6a3857df8540dd77f69eb4b4ef90dd8fc846bdcc49dd67e",
  "args": [
    "0xbbFfF35F9203707c80b46C3B8F8aCEAa7d12C67A"
  ],
  "numDeployments": 1,
  "solcInputHash": "e6874775def4ea22c2b8f71dc892b17e",
  "bytecode": "0x60a060405234801561001057600080fd5b50604051610f7e380380610f7e83398101604081905261002f9161009a565b6001600160a01b0381166100895760405162461bcd60e51b815260206004820152601760248201527f496e76616c696420666163746f72792061646472657373000000000000000000604482015260640160405180910390fd5b6001600160a01b03166080526100ca565b6000602082840312156100ac57600080fd5b81516001600160a01b03811681146100c357600080fd5b9392505050565b608051610e7e610100600039600081816074015281816101b10152818161032f0152818161058801526109920152610e7e6000f3fe608060405234801561001057600080fd5b50600436106100415760003560e01c8063472b43f314610046578063c45a01551461006f578063d06ca61f146100ae575b600080fd5b610059610054366004610c4a565b6100c1565b6040516100669190610cb5565b60405180910390f35b6100967f000000000000000000000000000000000000000000000000000000000000000081565b6040516001600160a01b039091168152602001610066565b6100596100bc366004610cf9565b6108c7565b606060028310156101135760405162461bcd60e51b81526020600482015260176024820152760888ab0a4deeae8cae47440929cac82989288bea082a89604b1b60448201526064015b60405180910390fd5b8267ffffffffffffffff81111561012c5761012c610d45565b604051908082528060200260200182016040528015610155578160200160208202803683370190505b509050858160008151811061016c5761016c610d5b565b6020026020010181815250508383600081811061018b5761018b610d5b565b90506020020160208101906101a09190610d71565b6001600160a01b03166323b872dd337f00000000000000000000000000000000000000000000000000000000000000006001600160a01b031663e6a43905888860008181106101f1576101f1610d5b565b90506020020160208101906102069190610d71565b8989600181811061021957610219610d5b565b905060200201602081019061022e9190610d71565b6040516001600160e01b031960e085901b1681526001600160a01b03928316600482015291166024820152604401602060405180830381865afa158015610279573d6000803e3d6000fd5b505050506040513d601f19601f8201168201806040525081019061029d9190610d95565b6040516001600160e01b031960e085901b1681526001600160a01b03928316600482015291166024820152604481018990526064016020604051808303816000875af11580156102f1573d6000803e3d6000fd5b505050506040513d601f19601f820116820180604052508101906103159190610db2565b5060005b610324600185610dea565b8110156108395760007f00000000000000000000000000000000000000000000000000000000000000006001600160a01b031663e6a4390587878581811061036e5761036e610d5b565b90506020020160208101906103839190610d71565b8888610390876001610e03565b81811061039f5761039f610d5b565b90506020020160208101906103b49190610d71565b6040516001600160e01b031960e085901b1681526001600160a01b03928316600482015291166024820152604401602060405180830381865afa1580156103ff573d6000803e3d6000fd5b505050506040513d601f19601f820116820180604052508101906104239190610d95565b90506001600160a01b03811661047b5760405162461bcd60e51b815260206004820152601a60248201527f444558526f757465723a20504149525f4e4f545f455849535453000000000000604482015260640161010a565b806001600160a01b038116631befa6db88888681811061049d5761049d610d5b565b90506020020160208101906104b29190610d71565b8686815181106104c4576104c4610d5b565b60200260200101516040518363ffffffff1660e01b81526004016104fd9291906001600160a01b03929092168252602082015260400190565b602060405180830381865afa15801561051a573d6000803e3d6000fd5b505050506040513d601f19601f8201168201806040525081019061053e9190610e16565b8461054a856001610e03565b8151811061055a5761055a610d5b565b60209081029190910101526000610572600288610dea565b841061057e578561067e565b6001600160a01b037f00000000000000000000000000000000000000000000000000000000000000001663e6a4390589896105ba886001610e03565b8181106105c9576105c9610d5b565b90506020020160208101906105de9190610d71565b8a8a6105eb896002610e03565b8181106105fa576105fa610d5b565b905060200201602081019061060f9190610d71565b6040516001600160e01b031960e085901b1681526001600160a01b03928316600482015291166024820152604401602060405180830381865afa15801561065a573d6000803e3d6000fd5b505050506040513d601f19601f8201168201806040525081019061067e9190610d95565b9050816001600160a01b0316639f1d0f598989878181106106a1576106a1610d5b565b90506020020160208101906106b69190610d71565b8787815181106106c8576106c8610d5b565b60209081029190910101516040516001600160e01b031960e085901b1681526001600160a01b0390921660048301526024820152600060448201526064016020604051808303816000875af1158015610725573d6000803e3d6000fd5b505050506040513d601f19601f820116820180604052508101906107499190610e16565b508787610757866001610e03565b81811061076657610766610d5b565b905060200201602081019061077b9190610d71565b6001600160a01b031663a9059cbb8287610796886001610e03565b815181106107a6576107a6610d5b565b60200260200101516040518363ffffffff1660e01b81526004016107df9291906001600160a01b03929092168252602082015260400190565b6020604051808303816000875af11580156107fe573d6000803e3d6000fd5b505050506040513d601f19601f820116820180604052508101906108229190610db2565b50505050808061083190610e2f565b915050610319565b5084816001835161084a9190610dea565b8151811061085a5761085a610d5b565b602002602001015110156108be5760405162461bcd60e51b815260206004820152602560248201527f444558526f757465723a20494e53554646494349454e545f4f55545055545f416044820152641353d5539560da1b606482015260840161010a565b95945050505050565b606060028210156109145760405162461bcd60e51b81526020600482015260176024820152760888ab0a4deeae8cae47440929cac82989288bea082a89604b1b604482015260640161010a565b8167ffffffffffffffff81111561092d5761092d610d45565b604051908082528060200260200182016040528015610956578160200160208202803683370190505b509050838160008151811061096d5761096d610d5b565b60200260200101818152505060005b610987600184610dea565b811015610bde5760007f00000000000000000000000000000000000000000000000000000000000000006001600160a01b031663e6a439058686858181106109d1576109d1610d5b565b90506020020160208101906109e69190610d71565b87876109f3876001610e03565b818110610a0257610a02610d5b565b9050602002016020810190610a179190610d71565b6040516001600160e01b031960e085901b1681526001600160a01b03928316600482015291166024820152604401602060405180830381865afa158015610a62573d6000803e3d6000fd5b505050506040513d601f19601f82011682018060405250810190610a869190610d95565b90506001600160a01b038116610ade5760405162461bcd60e51b815260206004820152601a60248201527f444558526f757465723a20504149525f4e4f545f455849535453000000000000604482015260640161010a565b806001600160a01b038116631befa6db878786818110610b0057610b00610d5b565b9050602002016020810190610b159190610d71565b868681518110610b2757610b27610d5b565b60200260200101516040518363ffffffff1660e01b8152600401610b609291906001600160a01b03929092168252602082015260400190565b602060405180830381865afa158015610b7d573d6000803e3d6000fd5b505050506040513d601f19601f82011682018060405250810190610ba19190610e16565b84610bad856001610e03565b81518110610bbd57610bbd610d5b565b60200260200101818152505050508080610bd690610e2f565b91505061097c565b509392505050565b60008083601f840112610bf857600080fd5b50813567ffffffffffffffff811115610c1057600080fd5b6020830191508360208260051b8501011115610c2b57600080fd5b9250929050565b6001600160a01b0381168114610c4757600080fd5b50565b600080600080600060808688031215610c6257600080fd5b8535945060208601359350604086013567ffffffffffffffff811115610c8757600080fd5b610c9388828901610be6565b9094509250506060860135610ca781610c32565b809150509295509295909350565b6020808252825182820181905260009190848201906040850190845b81811015610ced57835183529284019291840191600101610cd1565b50909695505050505050565b600080600060408486031215610d0e57600080fd5b83359250602084013567ffffffffffffffff811115610d2c57600080fd5b610d3886828701610be6565b9497909650939450505050565b634e487b7160e01b600052604160045260246000fd5b634e487b7160e01b600052603260045260246000fd5b600060208284031215610d8357600080fd5b8135610d8e81610c32565b9392505050565b600060208284031215610da757600080fd5b8151610d8e81610c32565b600060208284031215610dc457600080fd5b81518015158114610d8e57600080fd5b634e487b7160e01b600052601160045260246000fd5b81810381811115610dfd57610dfd610dd4565b92915050565b80820180821115610dfd57610dfd610dd4565b600060208284031215610e2857600080fd5b5051919050565b600060018201610e4157610e41610dd4565b506001019056fea26469706673582212207714b3271da3c6349c0cba8faffcb2f1ce84d1761bf7262a189a96b147bddd3764736f6c63430008110033",
  "devdoc": {
    "details": "Enables swapping through path: TokenA -> TokenB -> TokenC",
    "kind": "dev",
    "methods": {
      "getAmountsOut(uint256,address[])": {
        "params": {
          "amountIn": "Input amount",
          "path": "Array of token addresses"
        },
        "returns": {
          "amounts": "Array of output amounts for each step"
        }
      },
      "swapExactTokensForTokens(uint256,uint256,address[],address)": {
        "params": {
          "amountIn": "Input amount",
          "minAmountOut": "Minimum output amount (slippage protection)",
          "path": "Array of token addresses (e.g., [TokenA, TokenB, TokenC])",
          "to": "Recipient address"
        },
        "returns": {
          "amounts": "Array of amounts for each swap in the path"
        }
      }
    },
    "title": "DEXRouter",
    "version": 1
  },
  "userdoc": {
    "kind": "user",
    "methods": {
      "getAmountsOut(uint256,address[])": {
        "notice": "Get amounts out for a given input through a path"
      },
      "swapExactTokensForTokens(uint256,uint256,address[],address)": {
        "notice": "Swap exact tokens for tokens through a specified path"
      }
    },
    "notice": "Router contract for multi-hop swaps through multiple pairs",
    "version": 1
  },
  "storageLayout": {
    "storage": [],
    "types": null
  }
}