{
  "address": "0x74dea72D2A741a7E78c7D672d671679E337b6704",
  "abi": [
    {
      "inputs": [
        {
          "internalType": "address",
          "name": "_factory",
          "type": "address"
        }
      ],
      "stateMutability": "nonpayable",
      "type": "constructor"
    },
    {
      "inputs": [],
      "name": "factory",
      "outputs": [
        {
          "internalType": "contract DEXFactory",
          "name": "",
          "type": "address"
        }
      ],
      "stateMutability": "view",
      "type": "function"
    },
    {
      "inputs": [
        {
          "internalType": "uint256",
          "name": "amountIn",
          "type": "uint256"
        },
        {
          "internalType": "address[]",
          "name": "path",
          "type": "address[]"
        }
      ],
      "name": "getAmountsOut",
      "outputs": [
        {
          "internalType": "uint256[]",
          "name": "amounts",
          "type": "uint256[]"
        }
      ],
      "stateMutability": "view",
      "type": "function"
    },
    {
      "inputs": [
        {
          "internalType": "uint256",
          "name": "amountIn",
          "type": "uint256"
        },
        {
          "internalType": "uint256",
          "name": "minAmountOut",
          "type": "uint256"
        },
        {
          "internalType": "address[]",
          "name": "path",
          "type": "address[]"
        },
        {
          "internalType": "address",
          "name": "to",
          "type": "address"
        }
      ],
      "name": "swapExactTokensForTokens",
      "outputs": [
        {
          "internalType": "uint256[]",
          "name": "amounts",
          "type": "uint256[]"
        }
      ],
      "stateMutability": "nonpayable",
      "type": "function"
    }
  ],
  "transactionHash": "0x106a2df6d11e4ba1f3ccadc51d66f7b51a584c22174f1a20a4d6274938ec7e0f",
  "args": [
    "0x427655DBaB6e3CDE3C460bC34B7E30a0cF31016B"
  ],
  "numDeployments": 2,
  "solcInputHash": "4d8e19626fbd3e64aa4bee334fa8e1b8",
  "bytecode": "0x60a060405234801561001057600080fd5b50604051610f1a380380610f1a83398101604081905261002f9161009a565b6001600160a01b0381166100895760405162461bcd60e51b815260206004820152601760248201527f496e76616c696420666163746f72792061646472657373000000000000000000604482015260640160405180910390fd5b6001600160a01b03166080526100ca565b6000602082840312156100ac57600080fd5b81516001600160a01b03811681146100c357600080fd5b9392505050565b608051610e286100f260003960008181607401528181610191015261093c0152610e286000f3fe608060405234801561001057600080fd5b50600436106100415760003560e01c8063472b43f314610046578063c45a01551461006f578063d06ca61f146100ae575b600080fd5b610059610054366004610bf4565b6100c1565b6040516100669190610c5f565b60405180910390f35b6100967f000000000000000000000000000000000000000000000000000000000000000081565b6040516001600160a01b039091168152602001610066565b6100596100bc366004610ca3565b610871565b606060028310156101135760405162461bcd60e51b81526020600482015260176024820152760888ab0a4deeae8cae47440929cac82989288bea082a89604b1b60448201526064015b60405180910390fd5b8267ffffffffffffffff81111561012c5761012c610cef565b604051908082528060200260200182016040528015610155578160200160208202803683370190505b509050858160008151811061016c5761016c610d05565b60200260200101818152505060005b610186600185610d31565b8110156107075760007f00000000000000000000000000000000000000000000000000000000000000006001600160a01b031663e6a439058787858181106101d0576101d0610d05565b90506020020160208101906101e59190610d4a565b88886101f2876001610d6e565b81811061020157610201610d05565b90506020020160208101906102169190610d4a565b6040516001600160e01b031960e085901b1681526001600160a01b03928316600482015291166024820152604401602060405180830381865afa158015610261573d6000803e3d6000fd5b505050506040513d601f19601f820116820180604052508101906102859190610d81565b90506001600160a01b0381166102dd5760405162461bcd60e51b815260206004820152601a60248201527f444558526f757465723a20504149525f4e4f545f455849535453000000000000604482015260640161010a565b806001600160a01b038116631befa6db8888868181106102ff576102ff610d05565b90506020020160208101906103149190610d4a565b86868151811061032657610326610d05565b60200260200101516040518363ffffffff1660e01b815260040161035f9291906001600160a01b03929092168252602082015260400190565b602060405180830381865afa15801561037c573d6000803e3d6000fd5b505050506040513d601f19601f820116820180604052508101906103a09190610d9e565b846103ac856001610d6e565b815181106103bc576103bc610d05565b60200260200101818152505082600003610567578686848181106103e2576103e2610d05565b90506020020160208101906103f79190610d4a565b6001600160a01b03166323b872dd333087878151811061041957610419610d05565b60209081029190910101516040516001600160e01b031960e086901b1681526001600160a01b03938416600482015292909116602483015260448201526064016020604051808303816000875af1158015610478573d6000803e3d6000fd5b505050506040513d601f19601f8201168201806040525081019061049c9190610db7565b508686848181106104af576104af610d05565b90506020020160208101906104c49190610d4a565b6001600160a01b031663095ea7b3838686815181106104e5576104e5610d05565b60200260200101516040518363ffffffff1660e01b815260040161051e9291906001600160a01b03929092168252602082015260400190565b6020604051808303816000875af115801561053d573d6000803e3d6000fd5b505050506040513d601f19601f820116820180604052508101906105619190610db7565b5061062d565b86868481811061057957610579610d05565b905060200201602081019061058e9190610d4a565b6001600160a01b031663095ea7b3838686815181106105af576105af610d05565b60200260200101516040518363ffffffff1660e01b81526004016105e89291906001600160a01b03929092168252602082015260400190565b6020604051808303816000875af1158015610607573d6000803e3d6000fd5b505050506040513d601f19601f8201168201806040525081019061062b9190610db7565b505b806001600160a01b031663d004f0f788888681811061064e5761064e610d05565b90506020020160208101906106639190610d4a565b86868151811061067557610675610d05565b60200260200101516040518363ffffffff1660e01b81526004016106ae9291906001600160a01b03929092168252602082015260400190565b6020604051808303816000875af11580156106cd573d6000803e3d6000fd5b505050506040513d601f19601f820116820180604052508101906106f19190610d9e565b50505080806106ff90610dd9565b91505061017b565b508383610715600182610d31565b81811061072457610724610d05565b90506020020160208101906107399190610d4a565b6001600160a01b031663a9059cbb8383600185516107579190610d31565b8151811061076757610767610d05565b60200260200101516040518363ffffffff1660e01b81526004016107a09291906001600160a01b03929092168252602082015260400190565b6020604051808303816000875af11580156107bf573d6000803e3d6000fd5b505050506040513d601f19601f820116820180604052508101906107e39190610db7565b508481600183516107f49190610d31565b8151811061080457610804610d05565b602002602001015110156108685760405162461bcd60e51b815260206004820152602560248201527f444558526f757465723a20494e53554646494349454e545f4f55545055545f416044820152641353d5539560da1b606482015260840161010a565b95945050505050565b606060028210156108be5760405162461bcd60e51b81526020600482015260176024820152760888ab0a4deeae8cae47440929cac82989288bea082a89604b1b604482015260640161010a565b8167ffffffffffffffff8111156108d7576108d7610cef565b604051908082528060200260200182016040528015610900578160200160208202803683370190505b509050838160008151811061091757610917610d05565b60200260200101818152505060005b610931600184610d31565b811015610b885760007f00000000000000000000000000000000000000000000000000000000000000006001600160a01b031663e6a4390586868581811061097b5761097b610d05565b90506020020160208101906109909190610d4a565b878761099d876001610d6e565b8181106109ac576109ac610d05565b90506020020160208101906109c19190610d4a565b6040516001600160e01b031960e085901b1681526001600160a01b03928316600482015291166024820152604401602060405180830381865afa158015610a0c573d6000803e3d6000fd5b505050506040513d601f19601f82011682018060405250810190610a309190610d81565b90506001600160a01b038116610a885760405162461bcd60e51b815260206004820152601a60248201527f444558526f757465723a20504149525f4e4f545f455849535453000000000000604482015260640161010a565b806001600160a01b038116631befa6db878786818110610aaa57610aaa610d05565b9050602002016020810190610abf9190610d4a565b868681518110610ad157610ad1610d05565b60200260200101516040518363ffffffff1660e01b8152600401610b0a9291906001600160a01b03929092168252602082015260400190565b602060405180830381865afa158015610b27573d6000803e3d6000fd5b505050506040513d601f19601f82011682018060405250810190610b4b9190610d9e565b84610b57856001610d6e565b81518110610b6757610b67610d05565b60200260200101818152505050508080610b8090610dd9565b915050610926565b509392505050565b60008083601f840112610ba257600080fd5b50813567ffffffffffffffff811115610bba57600080fd5b6020830191508360208260051b8501011115610bd557600080fd5b9250929050565b6001600160a01b0381168114610bf157600080fd5b50565b600080600080600060808688031215610c0c57600080fd5b8535945060208601359350604086013567ffffffffffffffff811115610c3157600080fd5b610c3d88828901610b90565b9094509250506060860135610c5181610bdc565b809150509295509295909350565b6020808252825182820181905260009190848201906040850190845b81811015610c9757835183529284019291840191600101610c7b565b50909695505050505050565b600080600060408486031215610cb857600080fd5b83359250602084013567ffffffffffffffff811115610cd657600080fd5b610ce286828701610b90565b9497909650939450505050565b634e487b7160e01b600052604160045260246000fd5b634e487b7160e01b600052603260045260246000fd5b634e487b7160e01b600052601160045260246000fd5b81810381811115610d4457610d44610d1b565b92915050565b600060208284031215610d5c57600080fd5b8135610d6781610bdc565b9392505050565b80820180821115610d4457610d44610d1b565b600060208284031215610d9357600080fd5b8151610d6781610bdc565b600060208284031215610db057600080fd5b5051919050565b600060208284031215610dc957600080fd5b81518015158114610d6757600080fd5b600060018201610deb57610deb610d1b565b506001019056fea26469706673582212206a36c1a5d9cf2921c62bdac4f92ec50e43d9ffeae14fab77f1beb2e35fb5547a64736f6c63430008110033",
  "devdoc": {
    "details": "Enables swapping through path: TokenA -> TokenB -> TokenC",
    "kind": "dev",
    "methods": {
      "getAmountsOut(uint256,address[])": {
        "params": {
          "amountIn": "Input amount",
          "path": "Array of token addresses"
        },
        "returns": {
          "amounts": "Array of output amounts for each step"
        }
      },
      "swapExactTokensForTokens(uint256,uint256,address[],address)": {
        "params": {
          "amountIn": "Input amount",
          "minAmountOut": "Minimum output amount (slippage protection)",
          "path": "Array of token addresses (e.g., [TokenA, TokenB, TokenC])",
          "to": "Recipient address"
        },
        "returns": {
          "amounts": "Array of amounts for each swap in the path"
        }
      }
    },
    "title": "DEXRouter",
    "version": 1
  },
  "userdoc": {
    "kind": "user",
    "methods": {
      "getAmountsOut(uint256,address[])": {
        "notice": "Get amounts out for a given input through a path"
      },
      "swapExactTokensForTokens(uint256,uint256,address[],address)": {
        "notice": "Swap exact tokens for tokens through a specified path"
      }
    },
    "notice": "Router contract for multi-hop swaps through multiple pairs",
    "version": 1
  },
  "storageLayout": {
    "storage": [],
    "types": null
  }
}